{
  "transactions": [
    {
      "hash": "0xfc5abd74ddebd4102240e54a3ce6ee78071c036dce6e57132fc8059b8d65b67c",
      "transactionType": "CREATE",
      "contractName": "FameRenderer",
      "contractAddress": "0x527caf0cca84ee5733c95136e45ecd84750ca40f",
      "function": null,
      "arguments": null,
      "transaction": {
        "from": "0xd52e2a6bbceba9673440e4d7843db6713e9b6fd9",
        "gas": "0x33634",
        "value": "0x0",
        "input": "0x608060405234801561001057600080fd5b506101f7806100206000396000f3fe608060405234801561001057600080fd5b506004361061002b5760003560e01c8063c87b56dd14610030575b600080fd5b61004361003e36600461012b565b610059565b6040516100509190610144565b60405180910390f35b60606100866100678361008c565b6040518060600160405280602e8152602001610194602e9139906100d0565b92915050565b60606080604051019050602081016040526000815280600019835b928101926030600a8206018453600a9004806100a7575050819003601f19909101908152919050565b6040518251601f19906020810182165b85810151848201528201806100e0575083518184018360208301165b86810151828201528401806100fc5750506000910183810160208101929092528352603f011660405292915050565b60006020828403121561013d57600080fd5b5035919050565b60006020808352835180602085015260005b8181101561017257858101830151858201604001528201610156565b506000604082860101526040601f19601f830116850101925050509291505056fe68747470733a2f2f7777772e66616d656c616479736f63696574792e636f6d2f66616d652f6d657461646174612fa2646970667358221220645d5c25390a406e03aa829129243284887089cc7d68ed1ecc00d0f1ae9d605f64736f6c63430008180033",
        "nonce": "0x11",
        "chainId": "0x2105"
      },
      "additionalContracts": [],
      "isFixedGasLimit": false
    },
    {
      "hash": "0xd7104a5b48d56b561522dc26879a3c70cbd1c94ee8b721c572acd11a4b1b25a2",
      "transactionType": "CALL",
      "contractName": null,
      "contractAddress": "0xf307e242bfe1ec1ff01a4cef2fdaa81b10a52418",
      "function": "setRenderer(address)",
      "arguments": [
        "0x527CaF0ccA84eE5733c95136E45ecD84750Ca40F"
      ],
      "transaction": {
        "from": "0xd52e2a6bbceba9673440e4d7843db6713e9b6fd9",
        "to": "0xf307e242bfe1ec1ff01a4cef2fdaa81b10a52418",
        "gas": "0x18f8c",
        "value": "0x0",
        "input": "0x56d3163d000000000000000000000000527caf0cca84ee5733c95136e45ecd84750ca40f",
        "nonce": "0x12",
        "chainId": "0x2105"
      },
      "additionalContracts": [],
      "isFixedGasLimit": false
    }
  ],
  "receipts": [],
  "libraries": [],
  "pending": [
    "0xfc5abd74ddebd4102240e54a3ce6ee78071c036dce6e57132fc8059b8d65b67c",
    "0xd7104a5b48d56b561522dc26879a3c70cbd1c94ee8b721c572acd11a4b1b25a2"
  ],
  "returns": {},
  "timestamp": 1720829864,
  "chain": 8453,
  "commit": "b43c0ef"
}