{
  "transactions": [
    {
      "hash": "0xa091dae73ee114a37b764b487a5d6dbcc62bec142f8a3b3afacbe05ee6a9e4e3",
      "transactionType": "CREATE",
      "contractName": "ArtPatcherSept2024",
      "contractAddress": "0xf3ae57a548ac0cc6f9c69d3fe6a0ba89ea145de0",
      "function": null,
      "arguments": [
        "0x4F17d1078753B8cEf5FECa0d0cEA3D0BdDB64e80"
      ],
      "transaction": {
        "from": "0xd52e2a6bbceba9673440e4d7843db6713e9b6fd9",
        "gas": "0x4aa1b",
        "value": "0x0",
        "input": "0x608060405234801561001057600080fd5b5060405161036c38038061036c83398101604081905261002f91610054565b600080546001600160a01b0319166001600160a01b0392909216919091179055610084565b60006020828403121561006657600080fd5b81516001600160a01b038116811461007d57600080fd5b9392505050565b6102d9806100936000396000f3fe608060405234801561001057600080fd5b50600436106100365760003560e01c8063878af3011461003b578063c87b56dd1461006b575b600080fd5b60005461004e906001600160a01b031681565b6040516001600160a01b0390911681526020015b60405180910390f35b61007e61007936600461012c565b61008b565b6040516100629190610169565b6060816101eb036100b5576040518060800160405280604481526020016102606044913992915050565b60005460405163c87b56dd60e01b8152600481018490526001600160a01b039091169063c87b56dd90602401600060405180830381865afa1580156100fe573d6000803e3d6000fd5b505050506040513d6000823e601f3d908101601f1916820160405261012691908101906101b2565b92915050565b60006020828403121561013e57600080fd5b5035919050565b60005b83811015610160578181015183820152602001610148565b50506000910152565b6020815260008251806020840152610188816040850160208701610145565b601f01601f19169190910160400192915050565b634e487b7160e01b600052604160045260246000fd5b6000602082840312156101c457600080fd5b815167ffffffffffffffff808211156101dc57600080fd5b818401915084601f8301126101f057600080fd5b8151818111156102025761020261019c565b604051601f8201601f19908116603f0116810190838211818310171561022a5761022a61019c565b8160405282815287602084870101111561024357600080fd5b610254836020830160208801610145565b97965050505050505056fe68747470733a2f2f676174657761792e697279732e78797a2f54566a5a70563850574f6756665148645252754a4461785138454c2d4b6c767955303459564357376b4e77a26469706673582212201817181c8628fb4d72f040cace053656649d1ac9b5cb48c7562f7444601636c664736f6c634300081800330000000000000000000000004f17d1078753b8cef5feca0d0cea3d0bddb64e80",
        "nonce": "0x59",
        "chainId": "0x2105"
      },
      "additionalContracts": [],
      "isFixedGasLimit": false
    },
    {
      "hash": "0x233e9e3728deb8ea04b466c7a856a63d1f4589d9972fa9272304e82e9e938c5c",
      "transactionType": "CALL",
      "contractName": null,
      "contractAddress": "0xf307e242bfe1ec1ff01a4cef2fdaa81b10a52418",
      "function": "setRenderer(address)",
      "arguments": [
        "0xF3Ae57a548aC0cc6F9c69D3fe6a0Ba89eA145De0"
      ],
      "transaction": {
        "from": "0xd52e2a6bbceba9673440e4d7843db6713e9b6fd9",
        "to": "0xf307e242bfe1ec1ff01a4cef2fdaa81b10a52418",
        "gas": "0x1287d",
        "value": "0x0",
        "input": "0x56d3163d000000000000000000000000f3ae57a548ac0cc6f9c69d3fe6a0ba89ea145de0",
        "nonce": "0x5a",
        "chainId": "0x2105"
      },
      "additionalContracts": [],
      "isFixedGasLimit": false
    }
  ],
  "receipts": [
    {
      "status": "0x1",
      "cumulativeGasUsed": "0x396c5",
      "logs": [],
      "logsBloom": "0x00000000000000000000000000000000000000000000000000000000000000000000000000000000000000000000000000000000000000000000000000000000000000000000000000000000000000000000000000000000000000000000000000000000000000000000000000000000000000000000000000000000000000000000000000000000000000000000000000000000000000000000000000000000000000000000000000000000000000000000000000000000000000000000000000000000000000000000000000000000000000000000000000000000000000000000000000000000000000000000000000000000000000000000000000000000",
      "type": "0x2",
      "transactionHash": "0xa091dae73ee114a37b764b487a5d6dbcc62bec142f8a3b3afacbe05ee6a9e4e3",
      "transactionIndex": "0x0",
      "blockHash": "0x3625c73c897ad3bee3896460c9aed322eee9f0e98c5e3ecc2b521c3c4ee1e04a",
      "blockNumber": "0x12d061f",
      "gasUsed": "0x396c5",
      "effectiveGasPrice": "0x7",
      "blobGasPrice": "0x1",
      "from": "0xd52e2a6bbceba9673440e4d7843db6713e9b6fd9",
      "to": null,
      "contractAddress": "0xf3ae57a548ac0cc6f9c69d3fe6a0ba89ea145de0",
      "root": "0x0000000000000000000000000000000000000000000000000000000000000000"
    },
    {
      "status": "0x1",
      "cumulativeGasUsed": "0x46d6d",
      "logs": [
        {
          "address": "0xf307e242bfe1ec1ff01a4cef2fdaa81b10a52418",
          "topics": [
            "0x715ad5ce61fc9595c7b415289d59cf203f23a94fa06f04af7e489a0a76e1fe26",
            "0x000000000000000000000000c9e5cd7f29654204323f887cd305b957a5fe6af5",
            "0x0000000000000000000000000000000000000000000000000000000000000000"
          ],
          "data": "0x",
          "blockHash": "0x3625c73c897ad3bee3896460c9aed322eee9f0e98c5e3ecc2b521c3c4ee1e04a",
          "blockNumber": "0x12d061f",
          "blockTimestamp": "0x66e46921",
          "transactionHash": "0x233e9e3728deb8ea04b466c7a856a63d1f4589d9972fa9272304e82e9e938c5c",
          "transactionIndex": "0x1",
          "logIndex": "0x0",
          "removed": false
        },
        {
          "address": "0xf307e242bfe1ec1ff01a4cef2fdaa81b10a52418",
          "topics": [
            "0x715ad5ce61fc9595c7b415289d59cf203f23a94fa06f04af7e489a0a76e1fe26",
            "0x000000000000000000000000f3ae57a548ac0cc6f9c69d3fe6a0ba89ea145de0",
            "0x0000000000000000000000000000000000000000000000000000000000000001"
          ],
          "data": "0x",
          "blockHash": "0x3625c73c897ad3bee3896460c9aed322eee9f0e98c5e3ecc2b521c3c4ee1e04a",
          "blockNumber": "0x12d061f",
          "blockTimestamp": "0x66e46921",
          "transactionHash": "0x233e9e3728deb8ea04b466c7a856a63d1f4589d9972fa9272304e82e9e938c5c",
          "transactionIndex": "0x1",
          "logIndex": "0x1",
          "removed": false
        }
      ],
      "logsBloom": "0x00000000000000000400000000000000000000000000000000000000000000000000000000000000000000004000000000000000000000000000000000040000000000000000000000000000000000000020000000040000000000000000000000000000020000000000000000000800040000200000024000000000000000000000000000100000000000000000000000000000000000000000000000000000000000000000000000000000000000000000000000010000000000000000000000002000400000000000000000000000000000000000000000000002000060000000000000000000000000000000000000000000000000000000000000000000",
      "type": "0x2",
      "transactionHash": "0x233e9e3728deb8ea04b466c7a856a63d1f4589d9972fa9272304e82e9e938c5c",
      "transactionIndex": "0x1",
      "blockHash": "0x3625c73c897ad3bee3896460c9aed322eee9f0e98c5e3ecc2b521c3c4ee1e04a",
      "blockNumber": "0x12d061f",
      "gasUsed": "0xd6a8",
      "effectiveGasPrice": "0x7",
      "blobGasPrice": "0x1",
      "from": "0xd52e2a6bbceba9673440e4d7843db6713e9b6fd9",
      "to": "0xf307e242bfe1ec1ff01a4cef2fdaa81b10a52418",
      "contractAddress": null,
      "root": "0x0000000000000000000000000000000000000000000000000000000000000000"
    }
  ],
  "libraries": [],
  "pending": [],
  "returns": {},
  "timestamp": 1726245160,
  "chain": 8453,
  "commit": "62be437"
}