{
  "transactions": [
    {
      "hash": "0x8c28caff4f5843916af76d5fbf29a55a56c85f20121f33d1ed19118cc16a363f",
      "transactionType": "CREATE",
      "contractName": "SimpleOffchainReveal",
      "contractAddress": "0xa50c9a918c110ca159fb187f4a55896a4d063878",
      "function": null,
      "arguments": [
        "0xE5B20c26716bA7c42b398423c2F95e5F9D9aC093",
        "0xf307e242BfE1EC1fF01a4Cef2fdaa81b10A52418"
      ],
      "transaction": {
        "from": "0xd52e2a6bbceba9673440e4d7843db6713e9b6fd9",
        "gas": "0x14bdd3",
        "value": "0x0",
        "input": "0x608060405234801561001057600080fd5b506040516111ae3803806111ae83398101604081905261002f916100c7565b600080546001600160a01b038085166001600160a01b03199283161790925560018054928416929091169190911790556100683361006f565b50506100fa565b6001600160a01b0316638b78c6d8198190558060007f8be0079c531659141344cd1fd0a4f28419497f9722a3daafe3b4186f6b6457e08180a350565b80516001600160a01b03811681146100c257600080fd5b919050565b600080604083850312156100da57600080fd5b6100e3836100ab565b91506100f1602084016100ab565b90509250929050565b6110a5806101096000396000f3fe6080604052600436106100dd5760003560e01c8063a5c556121161007f578063c87b56dd11610059578063c87b56dd14610205578063f04e283e14610232578063f2fde38b14610245578063fee81cf41461025857600080fd5b8063a5c5561214610195578063aaa97b3e146101b5578063b32c4d8d146101d557600080fd5b8063878af301116100bb578063878af301146100fc5780638da5cb5b1461013957806391ba317a146101525780639289f86d1461017557600080fd5b806325692962146100e257806354d1f13d146100ec578063715018a6146100f4575b600080fd5b6100ea61028b565b005b6100ea6102db565b6100ea610317565b34801561010857600080fd5b5060005461011c906001600160a01b031681565b6040516001600160a01b0390911681526020015b60405180910390f35b34801561014557600080fd5b50638b78c6d8195461011c565b34801561015e57600080fd5b5061016761032b565b604051908152602001610130565b34801561018157600080fd5b50610167610190366004610c85565b61045c565b3480156101a157600080fd5b5060015461011c906001600160a01b031681565b3480156101c157600080fd5b506100ea6101d0366004610d0d565b6105a6565b3480156101e157600080fd5b506101f56101f0366004610c85565b6107c4565b6040516101309493929190610df0565b34801561021157600080fd5b50610225610220366004610c85565b61088c565b6040516101309190610e1f565b6100ea610240366004610e32565b610b26565b6100ea610253366004610e32565b610b66565b34801561026457600080fd5b50610167610273366004610e32565b63389a75e1600c908152600091909152602090205490565b60006202a30067ffffffffffffffff164201905063389a75e1600c5233600052806020600c2055337fdbf36a107da19e49527a7176a1babf963b4b0ff8cde35ee35d6cd8f1f9ac7e1d600080a250565b63389a75e1600c523360005260006020600c2055337ffa7b8eab7da67f412cc9575ed43464468f9bfbae89d1675917346ca6d8fe3c92600080a2565b61031f610b8d565b6103296000610ba8565b565b60025460009080820361034b5761034560016101f2610e71565b91505090565b6000600261035a600184610e71565b8154811061036a5761036a610e84565b90600052602060002090600402016040518060800160405290816000820154815260200160018201548152602001600282015481526020016003820180546103b190610e9a565b80601f01602080910402602001604051908101604052809291908181526020018280546103dd90610e9a565b801561042a5780601f106103ff5761010080835404028352916020019161042a565b820191906000526020600020905b81548152906001019060200180831161040d57829003601f168201915b505050505081525050905060018160400151826020015161044b9190610ed4565b6104559190610e71565b9250505090565b600254600090815b8181101561058c5760006002828154811061048157610481610e84565b90600052602060002090600402016040518060800160405290816000820154815260200160018201548152602001600282015481526020016003820180546104c890610e9a565b80601f01602080910402602001604051908101604052809291908181526020018280546104f490610e9a565b80156105415780601f1061051657610100808354040283529160200191610541565b820191906000526020600020905b81548152906001019060200180831161052457829003601f168201915b50505050508152505090508060200151851015801561057257508060400151816020015161056f9190610ed4565b85105b156105835760200151949350505050565b50600101610464565b50604051635614c23b60e11b815260040160405180910390fd5b6105ae610b8d565b600060405180608001604052808581526020016105c961032b565b6105d4906001610ed4565b81526020808201869052604091820185905260028054600181018255600091909152835160049091027f405787fa12a823e0f2b7631cc41b3ba8828b3321ca811111fa75cd3aa3bb5ace8101918255918401517f405787fa12a823e0f2b7631cc41b3ba8828b3321ca811111fa75cd3aa3bb5acf830155918301517f405787fa12a823e0f2b7631cc41b3ba8828b3321ca811111fa75cd3aa3bb5ad0820155606083015192935083927f405787fa12a823e0f2b7631cc41b3ba8828b3321ca811111fa75cd3aa3bb5ad1909101906106ac9082610f38565b50506001546001600160a01b03161590506107be5780604001516001036107395760015460208201516040516318c85cf560e11b81526001600160a01b0390921691633190b9ea916107049160040190815260200190565b600060405180830381600087803b15801561071e57600080fd5b505af192505050801561072f575060015b156107be576107be565b60018054602083015160408401516001600160a01b039092169263a4830114926107639083610ed4565b61076d9190610e71565b6040516001600160e01b031960e085901b16815260048101929092526024820152604401600060405180830381600087803b1580156107ab57600080fd5b505af19250505080156107bc575060015b505b50505050565b600281815481106107d457600080fd5b906000526020600020906004020160009150905080600001549080600101549080600201549080600301805461080990610e9a565b80601f016020809104026020016040519081016040528092919081815260200182805461083590610e9a565b80156108825780601f1061085757610100808354040283529160200191610882565b820191906000526020600020905b81548152906001019060200180831161086557829003601f168201915b5050505050905084565b60606101f282101561090f5760005460405163c87b56dd60e01b8152600481018490526001600160a01b039091169063c87b56dd90602401600060405180830381865afa1580156108e1573d6000803e3d6000fd5b505050506040513d6000823e601f3d908101601f191682016040526109099190810190610ff8565b92915050565b60025460005b81811015610aad5760006002828154811061093257610932610e84565b906000526020600020906004020160405180608001604052908160008201548152602001600182015481526020016002820154815260200160038201805461097990610e9a565b80601f01602080910402602001604051908101604052809291908181526020018280546109a590610e9a565b80156109f25780601f106109c7576101008083540402835291602001916109f2565b820191906000526020600020905b8154815290600101906020018083116109d557829003601f168201915b505050919092525050506020810151909150808610801590610a2157506040820151610a1e9082610ed4565b86105b15610aa3576000610a328288610e71565b835160408051602081019390935282015260600160408051601f1981840301815282825280516020918201208383019092526005835264173539b7b760d91b908301529150610a9890610a92610a8784610be6565b606087015190610c2a565b90610c2a565b979650505050505050565b5050600101610915565b5060005460405163c87b56dd60e01b8152600481018590526001600160a01b039091169063c87b56dd90602401600060405180830381865afa158015610af7573d6000803e3d6000fd5b505050506040513d6000823e601f3d908101601f19168201604052610b1f9190810190610ff8565b9392505050565b610b2e610b8d565b63389a75e1600c52806000526020600c208054421115610b5657636f5e88186000526004601cfd5b60009055610b6381610ba8565b50565b610b6e610b8d565b8060601b610b8457637448fbae6000526004601cfd5b610b6381610ba8565b638b78c6d819543314610329576382b429006000526004601cfd5b638b78c6d81980546001600160a01b039092169182907f8be0079c531659141344cd1fd0a4f28419497f9722a3daafe3b4186f6b6457e0600080a355565b60606080604051019050602081016040526000815280600019835b928101926030600a8206018453600a900480610c01575050819003601f19909101908152919050565b6040518251601f19906020810182165b8581015184820152820180610c3a575083518184018360208301165b8681015182820152840180610c565750506000910183810160208101929092528352603f011660405292915050565b600060208284031215610c9757600080fd5b5035919050565b634e487b7160e01b600052604160045260246000fd5b604051601f8201601f1916810167ffffffffffffffff81118282101715610cdd57610cdd610c9e565b604052919050565b600067ffffffffffffffff821115610cff57610cff610c9e565b50601f01601f191660200190565b600080600060608486031215610d2257600080fd5b8335925060208401359150604084013567ffffffffffffffff811115610d4757600080fd5b8401601f81018613610d5857600080fd5b8035610d6b610d6682610ce5565b610cb4565b818152876020838501011115610d8057600080fd5b816020840160208301376000602083830101528093505050509250925092565b60005b83811015610dbb578181015183820152602001610da3565b50506000910152565b60008151808452610ddc816020860160208601610da0565b601f01601f19169290920160200192915050565b848152836020820152826040820152608060608201526000610e156080830184610dc4565b9695505050505050565b602081526000610b1f6020830184610dc4565b600060208284031215610e4457600080fd5b81356001600160a01b0381168114610b1f57600080fd5b634e487b7160e01b600052601160045260246000fd5b8181038181111561090957610909610e5b565b634e487b7160e01b600052603260045260246000fd5b600181811c90821680610eae57607f821691505b602082108103610ece57634e487b7160e01b600052602260045260246000fd5b50919050565b8082018082111561090957610909610e5b565b601f821115610f33576000816000526020600020601f850160051c81016020861015610f105750805b601f850160051c820191505b81811015610f2f57828155600101610f1c565b5050505b505050565b815167ffffffffffffffff811115610f5257610f52610c9e565b610f6681610f608454610e9a565b84610ee7565b602080601f831160018114610f9b5760008415610f835750858301515b600019600386901b1c1916600185901b178555610f2f565b600085815260208120601f198616915b82811015610fca57888601518255948401946001909101908401610fab565b5085821015610fe85787850151600019600388901b60f8161c191681555b5050505050600190811b01905550565b60006020828403121561100a57600080fd5b815167ffffffffffffffff81111561102157600080fd5b8201601f8101841361103257600080fd5b8051611040610d6682610ce5565b81815285602083850101111561105557600080fd5b611066826020830160208601610da0565b9594505050505056fea264697066735822122031f1c1b922e6f537bd2f57726219acd0fa081f32273560d0d17d6195c3c00fbd64736f6c63430008180033000000000000000000000000e5b20c26716ba7c42b398423c2f95e5f9d9ac093000000000000000000000000f307e242bfe1ec1ff01a4cef2fdaa81b10a52418",
        "nonce": "0x6c",
        "chainId": "0x2105"
      },
      "additionalContracts": [],
      "isFixedGasLimit": false
    },
    {
      "hash": "0x0994331ab8e4b7194843d1fdb362dfb386d2b902c7c012be73faf42867d65b54",
      "transactionType": "CALL",
      "contractName": "SimpleOffchainReveal",
      "contractAddress": "0xa50c9a918c110ca159fb187f4a55896a4d063878",
      "function": "pushBatch(uint256,uint256,string)",
      "arguments": [
        "0",
        "10",
        "\"https://gateway.irys.xyz/y9tZi-bOlxkhe0pMYyHblPACeL8c_uo-ZtUz05UxPzM/\""
      ],
      "transaction": {
        "from": "0xd52e2a6bbceba9673440e4d7843db6713e9b6fd9",
        "to": "0xa50c9a918c110ca159fb187f4a55896a4d063878",
        "gas": "0x44756",
        "value": "0x0",
        "input": "0xaaa97b3e0000000000000000000000000000000000000000000000000000000000000000000000000000000000000000000000000000000000000000000000000000000a0000000000000000000000000000000000000000000000000000000000000060000000000000000000000000000000000000000000000000000000000000004568747470733a2f2f676174657761792e697279732e78797a2f7939745a692d624f6c786b686530704d597948626c504143654c38635f756f2d5a74557a30355578507a4d2f000000000000000000000000000000000000000000000000000000",
        "nonce": "0x6d",
        "chainId": "0x2105"
      },
      "additionalContracts": [],
      "isFixedGasLimit": false
    },
    {
      "hash": "0x2e3d44ee1ada803b3e96b020e4ef36bede453c2b7e9f7dfba98449a451b6e112",
      "transactionType": "CALL",
      "contractName": "SimpleOffchainReveal",
      "contractAddress": "0xa50c9a918c110ca159fb187f4a55896a4d063878",
      "function": "pushBatch(uint256,uint256,string)",
      "arguments": [
        "0",
        "10",
        "\"https://gateway.irys.xyz/wIvHv-ihupt-HaMIUNYzIOcXLcEEsnxu3kcpyYmqQyo/\""
      ],
      "transaction": {
        "from": "0xd52e2a6bbceba9673440e4d7843db6713e9b6fd9",
        "to": "0xa50c9a918c110ca159fb187f4a55896a4d063878",
        "gas": "0x40405",
        "value": "0x0",
        "input": "0xaaa97b3e0000000000000000000000000000000000000000000000000000000000000000000000000000000000000000000000000000000000000000000000000000000a0000000000000000000000000000000000000000000000000000000000000060000000000000000000000000000000000000000000000000000000000000004568747470733a2f2f676174657761792e697279732e78797a2f77497648762d69687570742d48614d49554e597a494f63584c634545736e7875336b637079596d7151796f2f000000000000000000000000000000000000000000000000000000",
        "nonce": "0x6e",
        "chainId": "0x2105"
      },
      "additionalContracts": [],
      "isFixedGasLimit": false
    },
    {
      "hash": "0x15fe87b648788ebe12ddee7bf4adc2ad1b547ebd50fb71ba952f286469023b04",
      "transactionType": "CALL",
      "contractName": "SimpleOffchainReveal",
      "contractAddress": "0xa50c9a918c110ca159fb187f4a55896a4d063878",
      "function": "pushBatch(uint256,uint256,string)",
      "arguments": [
        "0",
        "10",
        "\"https://gateway.irys.xyz/HKUDEYYwt_73k8bb_UWDpxCe9uV3CGaICu8nor07430/\""
      ],
      "transaction": {
        "from": "0xd52e2a6bbceba9673440e4d7843db6713e9b6fd9",
        "to": "0xa50c9a918c110ca159fb187f4a55896a4d063878",
        "gas": "0x40405",
        "value": "0x0",
        "input": "0xaaa97b3e0000000000000000000000000000000000000000000000000000000000000000000000000000000000000000000000000000000000000000000000000000000a0000000000000000000000000000000000000000000000000000000000000060000000000000000000000000000000000000000000000000000000000000004568747470733a2f2f676174657761792e697279732e78797a2f484b554445595977745f37336b3862625f5557447078436539755633434761494375386e6f7230373433302f000000000000000000000000000000000000000000000000000000",
        "nonce": "0x6f",
        "chainId": "0x2105"
      },
      "additionalContracts": [],
      "isFixedGasLimit": false
    },
    {
      "hash": "0xd77179ae986372703ad56ec5968ea9f19703598d7dbb56dbb55bf77e472517e2",
      "transactionType": "CALL",
      "contractName": "SimpleOffchainReveal",
      "contractAddress": "0xa50c9a918c110ca159fb187f4a55896a4d063878",
      "function": "pushBatch(uint256,uint256,string)",
      "arguments": [
        "1337000",
        "12",
        "\"https://gateway.irys.xyz/FD1-OUXP9tuePs8mlTYk25hA8TgnuaZ67RfL3P7Qi08/\""
      ],
      "transaction": {
        "from": "0xd52e2a6bbceba9673440e4d7843db6713e9b6fd9",
        "to": "0xa50c9a918c110ca159fb187f4a55896a4d063878",
        "gas": "0x46f95",
        "value": "0x0",
        "input": "0xaaa97b3e00000000000000000000000000000000000000000000000000000000001466a8000000000000000000000000000000000000000000000000000000000000000c0000000000000000000000000000000000000000000000000000000000000060000000000000000000000000000000000000000000000000000000000000004568747470733a2f2f676174657761792e697279732e78797a2f4644312d4f555850397475655073386d6c54596b323568413854676e75615a363752664c335037516930382f000000000000000000000000000000000000000000000000000000",
        "nonce": "0x70",
        "chainId": "0x2105"
      },
      "additionalContracts": [],
      "isFixedGasLimit": false
    },
    {
      "hash": "0xebbd859eee04b3befc1772e78253c7678062cd68c613a68372c4b81ff17e2aca",
      "transactionType": "CALL",
      "contractName": "SimpleOffchainReveal",
      "contractAddress": "0xa50c9a918c110ca159fb187f4a55896a4d063878",
      "function": "pushBatch(uint256,uint256,string)",
      "arguments": [
        "33",
        "24",
        "\"https://gateway.irys.xyz/0Qane4Rfo_gdoZmhfb0oU_NocOi2EG5P649OV0Sc0tc/\""
      ],
      "transaction": {
        "from": "0xd52e2a6bbceba9673440e4d7843db6713e9b6fd9",
        "to": "0xa50c9a918c110ca159fb187f4a55896a4d063878",
        "gas": "0x46f74",
        "value": "0x0",
        "input": "0xaaa97b3e000000000000000000000000000000000000000000000000000000000000002100000000000000000000000000000000000000000000000000000000000000180000000000000000000000000000000000000000000000000000000000000060000000000000000000000000000000000000000000000000000000000000004568747470733a2f2f676174657761792e697279732e78797a2f3051616e653452666f5f67646f5a6d686662306f555f4e6f634f6932454735503634394f563053633074632f000000000000000000000000000000000000000000000000000000",
        "nonce": "0x71",
        "chainId": "0x2105"
      },
      "additionalContracts": [],
      "isFixedGasLimit": false
    },
    {
      "hash": "0x8bf95ae99727dbae83402e2d4805c36076b9d81786a8cb1ab1f4698b68cefb2f",
      "transactionType": "CALL",
      "contractName": "SimpleOffchainReveal",
      "contractAddress": "0xa50c9a918c110ca159fb187f4a55896a4d063878",
      "function": "pushBatch(uint256,uint256,string)",
      "arguments": [
        "24",
        "16",
        "\"https://gateway.irys.xyz/nm6F0WrjGr4oKMwD4D8KnGx4pgdj3atvjbim3PbFMFM/\""
      ],
      "transaction": {
        "from": "0xd52e2a6bbceba9673440e4d7843db6713e9b6fd9",
        "to": "0xa50c9a918c110ca159fb187f4a55896a4d063878",
        "gas": "0x46f74",
        "value": "0x0",
        "input": "0xaaa97b3e000000000000000000000000000000000000000000000000000000000000001800000000000000000000000000000000000000000000000000000000000000100000000000000000000000000000000000000000000000000000000000000060000000000000000000000000000000000000000000000000000000000000004568747470733a2f2f676174657761792e697279732e78797a2f6e6d36463057726a4772346f4b4d77443444384b6e4778347067646a336174766a62696d335062464d464d2f000000000000000000000000000000000000000000000000000000",
        "nonce": "0x72",
        "chainId": "0x2105"
      },
      "additionalContracts": [],
      "isFixedGasLimit": false
    },
    {
      "hash": "0x35006901eb971dc09e18aa9e1e94623ea671ddc8bafb1292bd7dcc35909b0e4a",
      "transactionType": "CALL",
      "contractName": "SimpleOffchainReveal",
      "contractAddress": "0xa50c9a918c110ca159fb187f4a55896a4d063878",
      "function": "pushBatch(uint256,uint256,string)",
      "arguments": [
        "888",
        "13",
        "\"https://gateway.irys.xyz/AtQw-VDi13oYZd-fmOiDOp9y6ScNsAsT0HJsqWPuwpU/\""
      ],
      "transaction": {
        "from": "0xd52e2a6bbceba9673440e4d7843db6713e9b6fd9",
        "to": "0xa50c9a918c110ca159fb187f4a55896a4d063878",
        "gas": "0x4b251",
        "value": "0x0",
        "input": "0xaaa97b3e0000000000000000000000000000000000000000000000000000000000000378000000000000000000000000000000000000000000000000000000000000000d0000000000000000000000000000000000000000000000000000000000000060000000000000000000000000000000000000000000000000000000000000004568747470733a2f2f676174657761792e697279732e78797a2f417451772d56446931336f595a642d666d4f69444f7039793653634e7341735430484a73715750757770552f000000000000000000000000000000000000000000000000000000",
        "nonce": "0x73",
        "chainId": "0x2105"
      },
      "additionalContracts": [],
      "isFixedGasLimit": false
    },
    {
      "hash": "0xffdb69b750850c6b8280614ab15d1ac5ff1e14d462ff18858b1e2aeee8cafd70",
      "transactionType": "CALL",
      "contractName": "SimpleOffchainReveal",
      "contractAddress": "0xa50c9a918c110ca159fb187f4a55896a4d063878",
      "function": "pushBatch(uint256,uint256,string)",
      "arguments": [
        "666",
        "12",
        "\"https://gateway.irys.xyz/wZYsA8BZ7l0v0BgKaBwByhQA-C4P92Vxd9XTGf46KQ0/\""
      ],
      "transaction": {
        "from": "0xd52e2a6bbceba9673440e4d7843db6713e9b6fd9",
        "to": "0xa50c9a918c110ca159fb187f4a55896a4d063878",
        "gas": "0x4b251",
        "value": "0x0",
        "input": "0xaaa97b3e000000000000000000000000000000000000000000000000000000000000029a000000000000000000000000000000000000000000000000000000000000000c0000000000000000000000000000000000000000000000000000000000000060000000000000000000000000000000000000000000000000000000000000004568747470733a2f2f676174657761792e697279732e78797a2f775a59734138425a376c30763042674b61427742796851412d4334503932567864395854476634364b51302f000000000000000000000000000000000000000000000000000000",
        "nonce": "0x74",
        "chainId": "0x2105"
      },
      "additionalContracts": [],
      "isFixedGasLimit": false
    },
    {
      "hash": "0xba70a15b66688e0495c4558f45f1bfc8041e0d125ad7f4aa55fbc81cd800aedc",
      "transactionType": "CALL",
      "contractName": "SimpleOffchainReveal",
      "contractAddress": "0xa50c9a918c110ca159fb187f4a55896a4d063878",
      "function": "pushBatch(uint256,uint256,string)",
      "arguments": [
        "6969",
        "10",
        "\"https://gateway.irys.xyz/w-9ZRQkSJeGc6uDcOtdQne6AkFxQn2eLjKRj-MHzYOg/\""
      ],
      "transaction": {
        "from": "0xd52e2a6bbceba9673440e4d7843db6713e9b6fd9",
        "to": "0xa50c9a918c110ca159fb187f4a55896a4d063878",
        "gas": "0x4b251",
        "value": "0x0",
        "input": "0xaaa97b3e0000000000000000000000000000000000000000000000000000000000001b39000000000000000000000000000000000000000000000000000000000000000a0000000000000000000000000000000000000000000000000000000000000060000000000000000000000000000000000000000000000000000000000000004568747470733a2f2f676174657761792e697279732e78797a2f772d395a52516b534a654763367544634f7464516e6536416b4678516e32654c6a4b526a2d4d487a594f672f000000000000000000000000000000000000000000000000000000",
        "nonce": "0x75",
        "chainId": "0x2105"
      },
      "additionalContracts": [],
      "isFixedGasLimit": false
    },
    {
      "hash": "0xed3c82bacbc486a7da74d6672176e996d74f2632823a32aaf97ed99144e932f6",
      "transactionType": "CALL",
      "contractName": "SimpleOffchainReveal",
      "contractAddress": "0xa50c9a918c110ca159fb187f4a55896a4d063878",
      "function": "pushBatch(uint256,uint256,string)",
      "arguments": [
        "187",
        "10",
        "\"https://gateway.irys.xyz/-Z063Rq79ys-T2lWbArVMF4N1CRRsLZPC7VMj_2pydQ/\""
      ],
      "transaction": {
        "from": "0xd52e2a6bbceba9673440e4d7843db6713e9b6fd9",
        "to": "0xa50c9a918c110ca159fb187f4a55896a4d063878",
        "gas": "0x46f74",
        "value": "0x0",
        "input": "0xaaa97b3e00000000000000000000000000000000000000000000000000000000000000bb000000000000000000000000000000000000000000000000000000000000000a0000000000000000000000000000000000000000000000000000000000000060000000000000000000000000000000000000000000000000000000000000004568747470733a2f2f676174657761792e697279732e78797a2f2d5a3036335271373979732d54326c57624172564d46344e31435252734c5a504337564d6a5f32707964512f000000000000000000000000000000000000000000000000000000",
        "nonce": "0x76",
        "chainId": "0x2105"
      },
      "additionalContracts": [],
      "isFixedGasLimit": false
    },
    {
      "hash": "0xf93270070ecdc67256141fbcb69fb4f45f3028434a9bd9a0cc7601bf2dac9692",
      "transactionType": "CALL",
      "contractName": null,
      "contractAddress": "0xf307e242bfe1ec1ff01a4cef2fdaa81b10a52418",
      "function": "setRenderer(address)",
      "arguments": [
        "0xA50C9a918C110CA159fb187F4a55896A4d063878"
      ],
      "transaction": {
        "from": "0xd52e2a6bbceba9673440e4d7843db6713e9b6fd9",
        "to": "0xf307e242bfe1ec1ff01a4cef2fdaa81b10a52418",
        "gas": "0x1287d",
        "value": "0x0",
        "input": "0x56d3163d000000000000000000000000a50c9a918c110ca159fb187f4a55896a4d063878",
        "nonce": "0x77",
        "chainId": "0x2105"
      },
      "additionalContracts": [],
      "isFixedGasLimit": false
    }
  ],
  "receipts": [
    {
      "status": "0x1",
      "cumulativeGasUsed": "0x1bd41f9",
      "logs": [
        {
          "address": "0xa50c9a918c110ca159fb187f4a55896a4d063878",
          "topics": [
            "0x8be0079c531659141344cd1fd0a4f28419497f9722a3daafe3b4186f6b6457e0",
            "0x0000000000000000000000000000000000000000000000000000000000000000",
            "0x000000000000000000000000d52e2a6bbceba9673440e4d7843db6713e9b6fd9"
          ],
          "data": "0x",
          "blockHash": "0x030f598f6d1feefcef23f5ef92a5bcbd01965db5d5738f522839be0f8016ee6c",
          "blockNumber": "0x1583000",
          "blockTimestamp": "0x673abce3",
          "transactionHash": "0x8c28caff4f5843916af76d5fbf29a55a56c85f20121f33d1ed19118cc16a363f",
          "transactionIndex": "0x94",
          "logIndex": "0x195",
          "removed": false
        }
      ],
      "logsBloom": "0x00000000000000000000000000000000000000000000800000800000000800000000000000000000000000000000000000000000000000000010000000000000000000000000000000000000000000000101000000000000000000000000000000000000020000000000000000000800000000000000000000002000000000400000000000000000000000000000000000000000000000000000000000000000000000000000000000000000000000000000010000000000000000000000000000000000000000000000000000000000000000000000000000000000000020000000000000000000000000000000000000000000000000000000000000000000",
      "type": "0x0",
      "transactionHash": "0x8c28caff4f5843916af76d5fbf29a55a56c85f20121f33d1ed19118cc16a363f",
      "transactionIndex": "0x94",
      "blockHash": "0x030f598f6d1feefcef23f5ef92a5bcbd01965db5d5738f522839be0f8016ee6c",
      "blockNumber": "0x1583000",
      "gasUsed": "0xff59b",
      "effectiveGasPrice": "0x81ff52",
      "from": "0xd52e2a6bbceba9673440e4d7843db6713e9b6fd9",
      "to": null,
      "contractAddress": "0xa50c9a918c110ca159fb187f4a55896a4d063878",
      "l1BaseFeeScalar": "0x8dd",
      "l1BlobBaseFee": "0xb41d4fab",
      "l1BlobBaseFeeScalar": "0x101c12",
      "l1Fee": "0x164953a052e",
      "l1FeeScalar": "0.002269",
      "l1GasPrice": "0x22a176fe6",
      "l1GasUsed": "0x11ba0"
    },
    {
      "status": "0x1",
      "cumulativeGasUsed": "0x1c02eec",
      "logs": [],
      "logsBloom": "0x00000000000000000000000000000000000000000000000000000000000000000000000000000000000000000000000000000000000000000000000000000000000000000000000000000000000000000000000000000000000000000000000000000000000000000000000000000000000000000000000000000000000000000000000000000000000000000000000000000000000000000000000000000000000000000000000000000000000000000000000000000000000000000000000000000000000000000000000000000000000000000000000000000000000000000000000000000000000000000000000000000000000000000000000000000000",
      "type": "0x0",
      "transactionHash": "0x0994331ab8e4b7194843d1fdb362dfb386d2b902c7c012be73faf42867d65b54",
      "transactionIndex": "0x95",
      "blockHash": "0x030f598f6d1feefcef23f5ef92a5bcbd01965db5d5738f522839be0f8016ee6c",
      "blockNumber": "0x1583000",
      "gasUsed": "0x2ecf3",
      "effectiveGasPrice": "0x81ff52",
      "from": "0xd52e2a6bbceba9673440e4d7843db6713e9b6fd9",
      "to": "0xa50c9a918c110ca159fb187f4a55896a4d063878",
      "contractAddress": null,
      "l1BaseFeeScalar": "0x8dd",
      "l1BlobBaseFee": "0xb41d4fab",
      "l1BlobBaseFeeScalar": "0x101c12",
      "l1Fee": "0x113558d43f",
      "l1FeeScalar": "0.002269",
      "l1GasPrice": "0x22a176fe6",
      "l1GasUsed": "0xdb0"
    },
    {
      "status": "0x1",
      "cumulativeGasUsed": "0x1c31731",
      "logs": [],
      "logsBloom": "0x00000000000000000000000000000000000000000000000000000000000000000000000000000000000000000000000000000000000000000000000000000000000000000000000000000000000000000000000000000000000000000000000000000000000000000000000000000000000000000000000000000000000000000000000000000000000000000000000000000000000000000000000000000000000000000000000000000000000000000000000000000000000000000000000000000000000000000000000000000000000000000000000000000000000000000000000000000000000000000000000000000000000000000000000000000000",
      "type": "0x0",
      "transactionHash": "0x2e3d44ee1ada803b3e96b020e4ef36bede453c2b7e9f7dfba98449a451b6e112",
      "transactionIndex": "0x96",
      "blockHash": "0x030f598f6d1feefcef23f5ef92a5bcbd01965db5d5738f522839be0f8016ee6c",
      "blockNumber": "0x1583000",
      "gasUsed": "0x2e845",
      "effectiveGasPrice": "0x81ff52",
      "from": "0xd52e2a6bbceba9673440e4d7843db6713e9b6fd9",
      "to": "0xa50c9a918c110ca159fb187f4a55896a4d063878",
      "contractAddress": null,
      "l1BaseFeeScalar": "0x8dd",
      "l1BlobBaseFee": "0xb41d4fab",
      "l1BlobBaseFeeScalar": "0x101c12",
      "l1Fee": "0x113558d43f",
      "l1FeeScalar": "0.002269",
      "l1GasPrice": "0x22a176fe6",
      "l1GasUsed": "0xdb0"
    },
    {
      "status": "0x1",
      "cumulativeGasUsed": "0x1c5ff76",
      "logs": [],
      "logsBloom": "0x00000000000000000000000000000000000000000000000000000000000000000000000000000000000000000000000000000000000000000000000000000000000000000000000000000000000000000000000000000000000000000000000000000000000000000000000000000000000000000000000000000000000000000000000000000000000000000000000000000000000000000000000000000000000000000000000000000000000000000000000000000000000000000000000000000000000000000000000000000000000000000000000000000000000000000000000000000000000000000000000000000000000000000000000000000000",
      "type": "0x0",
      "transactionHash": "0x15fe87b648788ebe12ddee7bf4adc2ad1b547ebd50fb71ba952f286469023b04",
      "transactionIndex": "0x97",
      "blockHash": "0x030f598f6d1feefcef23f5ef92a5bcbd01965db5d5738f522839be0f8016ee6c",
      "blockNumber": "0x1583000",
      "gasUsed": "0x2e845",
      "effectiveGasPrice": "0x81ff52",
      "from": "0xd52e2a6bbceba9673440e4d7843db6713e9b6fd9",
      "to": "0xa50c9a918c110ca159fb187f4a55896a4d063878",
      "contractAddress": null,
      "l1BaseFeeScalar": "0x8dd",
      "l1BlobBaseFee": "0xb41d4fab",
      "l1BlobBaseFeeScalar": "0x101c12",
      "l1Fee": "0x1126429b69",
      "l1FeeScalar": "0.002269",
      "l1GasPrice": "0x22a176fe6",
      "l1GasUsed": "0xda4"
    },
    {
      "status": "0x1",
      "cumulativeGasUsed": "0x1c9359b",
      "logs": [],
      "logsBloom": "0x00000000000000000000000000000000000000000000000000000000000000000000000000000000000000000000000000000000000000000000000000000000000000000000000000000000000000000000000000000000000000000000000000000000000000000000000000000000000000000000000000000000000000000000000000000000000000000000000000000000000000000000000000000000000000000000000000000000000000000000000000000000000000000000000000000000000000000000000000000000000000000000000000000000000000000000000000000000000000000000000000000000000000000000000000000000",
      "type": "0x0",
      "transactionHash": "0xd77179ae986372703ad56ec5968ea9f19703598d7dbb56dbb55bf77e472517e2",
      "transactionIndex": "0x98",
      "blockHash": "0x030f598f6d1feefcef23f5ef92a5bcbd01965db5d5738f522839be0f8016ee6c",
      "blockNumber": "0x1583000",
      "gasUsed": "0x33625",
      "effectiveGasPrice": "0x81ff52",
      "from": "0xd52e2a6bbceba9673440e4d7843db6713e9b6fd9",
      "to": "0xa50c9a918c110ca159fb187f4a55896a4d063878",
      "contractAddress": null,
      "l1BaseFeeScalar": "0x8dd",
      "l1BlobBaseFee": "0xb41d4fab",
      "l1BlobBaseFeeScalar": "0x101c12",
      "l1Fee": "0x11538545eb",
      "l1FeeScalar": "0.002269",
      "l1GasPrice": "0x22a176fe6",
      "l1GasUsed": "0xdc8"
    },
    {
      "status": "0x1",
      "cumulativeGasUsed": "0x1cc6ba8",
      "logs": [],
      "logsBloom": "0x00000000000000000000000000000000000000000000000000000000000000000000000000000000000000000000000000000000000000000000000000000000000000000000000000000000000000000000000000000000000000000000000000000000000000000000000000000000000000000000000000000000000000000000000000000000000000000000000000000000000000000000000000000000000000000000000000000000000000000000000000000000000000000000000000000000000000000000000000000000000000000000000000000000000000000000000000000000000000000000000000000000000000000000000000000000",
      "type": "0x0",
      "transactionHash": "0xebbd859eee04b3befc1772e78253c7678062cd68c613a68372c4b81ff17e2aca",
      "transactionIndex": "0x99",
      "blockHash": "0x030f598f6d1feefcef23f5ef92a5bcbd01965db5d5738f522839be0f8016ee6c",
      "blockNumber": "0x1583000",
      "gasUsed": "0x3360d",
      "effectiveGasPrice": "0x81ff52",
      "from": "0xd52e2a6bbceba9673440e4d7843db6713e9b6fd9",
      "to": "0xa50c9a918c110ca159fb187f4a55896a4d063878",
      "contractAddress": null,
      "l1BaseFeeScalar": "0x8dd",
      "l1BlobBaseFee": "0xb41d4fab",
      "l1BlobBaseFeeScalar": "0x101c12",
      "l1Fee": "0x113558d43f",
      "l1FeeScalar": "0.002269",
      "l1GasPrice": "0x22a176fe6",
      "l1GasUsed": "0xdb0"
    },
    {
      "status": "0x1",
      "cumulativeGasUsed": "0x1cfa1b5",
      "logs": [],
      "logsBloom": "0x00000000000000000000000000000000000000000000000000000000000000000000000000000000000000000000000000000000000000000000000000000000000000000000000000000000000000000000000000000000000000000000000000000000000000000000000000000000000000000000000000000000000000000000000000000000000000000000000000000000000000000000000000000000000000000000000000000000000000000000000000000000000000000000000000000000000000000000000000000000000000000000000000000000000000000000000000000000000000000000000000000000000000000000000000000000",
      "type": "0x0",
      "transactionHash": "0x8bf95ae99727dbae83402e2d4805c36076b9d81786a8cb1ab1f4698b68cefb2f",
      "transactionIndex": "0x9a",
      "blockHash": "0x030f598f6d1feefcef23f5ef92a5bcbd01965db5d5738f522839be0f8016ee6c",
      "blockNumber": "0x1583000",
      "gasUsed": "0x3360d",
      "effectiveGasPrice": "0x81ff52",
      "from": "0xd52e2a6bbceba9673440e4d7843db6713e9b6fd9",
      "to": "0xa50c9a918c110ca159fb187f4a55896a4d063878",
      "contractAddress": null,
      "l1BaseFeeScalar": "0x8dd",
      "l1BlobBaseFee": "0xb41d4fab",
      "l1BlobBaseFeeScalar": "0x101c12",
      "l1Fee": "0x11446f0d15",
      "l1FeeScalar": "0.002269",
      "l1GasPrice": "0x22a176fe6",
      "l1GasUsed": "0xdbc"
    },
    {
      "status": "0x1",
      "cumulativeGasUsed": "0x1d2d7ce",
      "logs": [],
      "logsBloom": "0x00000000000000000000000000000000000000000000000000000000000000000000000000000000000000000000000000000000000000000000000000000000000000000000000000000000000000000000000000000000000000000000000000000000000000000000000000000000000000000000000000000000000000000000000000000000000000000000000000000000000000000000000000000000000000000000000000000000000000000000000000000000000000000000000000000000000000000000000000000000000000000000000000000000000000000000000000000000000000000000000000000000000000000000000000000000",
      "type": "0x0",
      "transactionHash": "0x35006901eb971dc09e18aa9e1e94623ea671ddc8bafb1292bd7dcc35909b0e4a",
      "transactionIndex": "0x9b",
      "blockHash": "0x030f598f6d1feefcef23f5ef92a5bcbd01965db5d5738f522839be0f8016ee6c",
      "blockNumber": "0x1583000",
      "gasUsed": "0x33619",
      "effectiveGasPrice": "0x81ff52",
      "from": "0xd52e2a6bbceba9673440e4d7843db6713e9b6fd9",
      "to": "0xa50c9a918c110ca159fb187f4a55896a4d063878",
      "contractAddress": null,
      "l1BaseFeeScalar": "0x8dd",
      "l1BlobBaseFee": "0xb41d4fab",
      "l1BlobBaseFeeScalar": "0x101c12",
      "l1Fee": "0x11538545eb",
      "l1FeeScalar": "0.002269",
      "l1GasPrice": "0x22a176fe6",
      "l1GasUsed": "0xdc8"
    },
    {
      "status": "0x1",
      "cumulativeGasUsed": "0x1d60de7",
      "logs": [],
      "logsBloom": "0x00000000000000000000000000000000000000000000000000000000000000000000000000000000000000000000000000000000000000000000000000000000000000000000000000000000000000000000000000000000000000000000000000000000000000000000000000000000000000000000000000000000000000000000000000000000000000000000000000000000000000000000000000000000000000000000000000000000000000000000000000000000000000000000000000000000000000000000000000000000000000000000000000000000000000000000000000000000000000000000000000000000000000000000000000000000",
      "type": "0x0",
      "transactionHash": "0xffdb69b750850c6b8280614ab15d1ac5ff1e14d462ff18858b1e2aeee8cafd70",
      "transactionIndex": "0x9c",
      "blockHash": "0x030f598f6d1feefcef23f5ef92a5bcbd01965db5d5738f522839be0f8016ee6c",
      "blockNumber": "0x1583000",
      "gasUsed": "0x33619",
      "effectiveGasPrice": "0x81ff52",
      "from": "0xd52e2a6bbceba9673440e4d7843db6713e9b6fd9",
      "to": "0xa50c9a918c110ca159fb187f4a55896a4d063878",
      "contractAddress": null,
      "l1BaseFeeScalar": "0x8dd",
      "l1BlobBaseFee": "0xb41d4fab",
      "l1BlobBaseFeeScalar": "0x101c12",
      "l1Fee": "0x11538545eb",
      "l1FeeScalar": "0.002269",
      "l1GasPrice": "0x22a176fe6",
      "l1GasUsed": "0xdc8"
    },
    {
      "status": "0x1",
      "cumulativeGasUsed": "0x1d94400",
      "logs": [],
      "logsBloom": "0x00000000000000000000000000000000000000000000000000000000000000000000000000000000000000000000000000000000000000000000000000000000000000000000000000000000000000000000000000000000000000000000000000000000000000000000000000000000000000000000000000000000000000000000000000000000000000000000000000000000000000000000000000000000000000000000000000000000000000000000000000000000000000000000000000000000000000000000000000000000000000000000000000000000000000000000000000000000000000000000000000000000000000000000000000000000",
      "type": "0x0",
      "transactionHash": "0xba70a15b66688e0495c4558f45f1bfc8041e0d125ad7f4aa55fbc81cd800aedc",
      "transactionIndex": "0x9d",
      "blockHash": "0x030f598f6d1feefcef23f5ef92a5bcbd01965db5d5738f522839be0f8016ee6c",
      "blockNumber": "0x1583000",
      "gasUsed": "0x33619",
      "effectiveGasPrice": "0x81ff52",
      "from": "0xd52e2a6bbceba9673440e4d7843db6713e9b6fd9",
      "to": "0xa50c9a918c110ca159fb187f4a55896a4d063878",
      "contractAddress": null,
      "l1BaseFeeScalar": "0x8dd",
      "l1BlobBaseFee": "0xb41d4fab",
      "l1BlobBaseFeeScalar": "0x101c12",
      "l1Fee": "0x11538545eb",
      "l1FeeScalar": "0.002269",
      "l1GasPrice": "0x22a176fe6",
      "l1GasUsed": "0xdc8"
    },
    {
      "status": "0x1",
      "cumulativeGasUsed": "0x1dc7a0d",
      "logs": [],
      "logsBloom": "0x00000000000000000000000000000000000000000000000000000000000000000000000000000000000000000000000000000000000000000000000000000000000000000000000000000000000000000000000000000000000000000000000000000000000000000000000000000000000000000000000000000000000000000000000000000000000000000000000000000000000000000000000000000000000000000000000000000000000000000000000000000000000000000000000000000000000000000000000000000000000000000000000000000000000000000000000000000000000000000000000000000000000000000000000000000000",
      "type": "0x0",
      "transactionHash": "0xed3c82bacbc486a7da74d6672176e996d74f2632823a32aaf97ed99144e932f6",
      "transactionIndex": "0x9e",
      "blockHash": "0x030f598f6d1feefcef23f5ef92a5bcbd01965db5d5738f522839be0f8016ee6c",
      "blockNumber": "0x1583000",
      "gasUsed": "0x3360d",
      "effectiveGasPrice": "0x81ff52",
      "from": "0xd52e2a6bbceba9673440e4d7843db6713e9b6fd9",
      "to": "0xa50c9a918c110ca159fb187f4a55896a4d063878",
      "contractAddress": null,
      "l1BaseFeeScalar": "0x8dd",
      "l1BlobBaseFee": "0xb41d4fab",
      "l1BlobBaseFeeScalar": "0x101c12",
      "l1Fee": "0x11446f0d15",
      "l1FeeScalar": "0.002269",
      "l1GasPrice": "0x22a176fe6",
      "l1GasUsed": "0xdbc"
    },
    {
      "status": "0x1",
      "cumulativeGasUsed": "0x1dd50b5",
      "logs": [
        {
          "address": "0xf307e242bfe1ec1ff01a4cef2fdaa81b10a52418",
          "topics": [
            "0x715ad5ce61fc9595c7b415289d59cf203f23a94fa06f04af7e489a0a76e1fe26",
            "0x000000000000000000000000da323d35fd976486d9105f33a7a811ae36320c60",
            "0x0000000000000000000000000000000000000000000000000000000000000000"
          ],
          "data": "0x",
          "blockHash": "0x030f598f6d1feefcef23f5ef92a5bcbd01965db5d5738f522839be0f8016ee6c",
          "blockNumber": "0x1583000",
          "blockTimestamp": "0x673abce3",
          "transactionHash": "0xf93270070ecdc67256141fbcb69fb4f45f3028434a9bd9a0cc7601bf2dac9692",
          "transactionIndex": "0x9f",
          "logIndex": "0x196",
          "removed": false
        },
        {
          "address": "0xf307e242bfe1ec1ff01a4cef2fdaa81b10a52418",
          "topics": [
            "0x715ad5ce61fc9595c7b415289d59cf203f23a94fa06f04af7e489a0a76e1fe26",
            "0x000000000000000000000000a50c9a918c110ca159fb187f4a55896a4d063878",
            "0x0000000000000000000000000000000000000000000000000000000000000001"
          ],
          "data": "0x",
          "blockHash": "0x030f598f6d1feefcef23f5ef92a5bcbd01965db5d5738f522839be0f8016ee6c",
          "blockNumber": "0x1583000",
          "blockTimestamp": "0x673abce3",
          "transactionHash": "0xf93270070ecdc67256141fbcb69fb4f45f3028434a9bd9a0cc7601bf2dac9692",
          "transactionIndex": "0x9f",
          "logIndex": "0x197",
          "removed": false
        }
      ],
      "logsBloom": "0x00000000000000000000000000000000000000000000000000000000000000000000000000000000000000000000000000000000000000000000000000040000000000000000000000000000000000000020002000040000000000000000000000000000020000000000000000000800040000000000020000000000000000000000000000000208000000000000000000000000000000000000000000000000000000002000000000000000000000000000000000010000000000000000000000002000400000000000000000000000000000000000000000000000000060000000000000000000000000000000000400000000000000000000004000000000",
      "type": "0x0",
      "transactionHash": "0xf93270070ecdc67256141fbcb69fb4f45f3028434a9bd9a0cc7601bf2dac9692",
      "transactionIndex": "0x9f",
      "blockHash": "0x030f598f6d1feefcef23f5ef92a5bcbd01965db5d5738f522839be0f8016ee6c",
      "blockNumber": "0x1583000",
      "gasUsed": "0xd6a8",
      "effectiveGasPrice": "0x81ff52",
      "from": "0xd52e2a6bbceba9673440e4d7843db6713e9b6fd9",
      "to": "0xf307e242bfe1ec1ff01a4cef2fdaa81b10a52418",
      "contractAddress": null,
      "l1BaseFeeScalar": "0x8dd",
      "l1BlobBaseFee": "0xb41d4fab",
      "l1BlobBaseFeeScalar": "0x101c12",
      "l1Fee": "0xa370bd0fc",
      "l1FeeScalar": "0.002269",
      "l1GasPrice": "0x22a176fe6",
      "l1GasUsed": "0x820"
    }
  ],
  "libraries": [],
  "pending": [],
  "returns": {},
  "timestamp": 1731902726,
  "chain": 8453,
  "commit": "8cab042"
}