{
  "transactions": [
    {
      "hash": "0xa268799d280e467005f6056b39b4ff7fd312ec94bce6d8b1b5589d02ac7b244d",
      "transactionType": "CREATE",
      "contractName": "SimpleOffchainReveal",
      "contractAddress": "0xda323d35fd976486d9105f33a7a811ae36320c60",
      "function": null,
      "arguments": [
        "0xE5B20c26716bA7c42b398423c2F95e5F9D9aC093",
        "0xf307e242BfE1EC1fF01a4Cef2fdaa81b10A52418"
      ],
      "transaction": {
        "from": "0xd52e2a6bbceba9673440e4d7843db6713e9b6fd9",
        "gas": "0x14a8e3",
        "value": "0x0",
        "input": "0x608060405234801561001057600080fd5b5060405161119b38038061119b83398101604081905261002f916100c7565b600080546001600160a01b038085166001600160a01b03199283161790925560018054928416929091169190911790556100683361006f565b50506100fa565b6001600160a01b0316638b78c6d8198190558060007f8be0079c531659141344cd1fd0a4f28419497f9722a3daafe3b4186f6b6457e08180a350565b80516001600160a01b03811681146100c257600080fd5b919050565b600080604083850312156100da57600080fd5b6100e3836100ab565b91506100f1602084016100ab565b90509250929050565b611092806101096000396000f3fe6080604052600436106100dd5760003560e01c8063a5c556121161007f578063c87b56dd11610059578063c87b56dd14610205578063f04e283e14610232578063f2fde38b14610245578063fee81cf41461025857600080fd5b8063a5c5561214610195578063aaa97b3e146101b5578063b32c4d8d146101d557600080fd5b8063878af301116100bb578063878af301146100fc5780638da5cb5b1461013957806391ba317a146101525780639289f86d1461017557600080fd5b806325692962146100e257806354d1f13d146100ec578063715018a6146100f4575b600080fd5b6100ea61028b565b005b6100ea6102db565b6100ea610317565b34801561010857600080fd5b5060005461011c906001600160a01b031681565b6040516001600160a01b0390911681526020015b60405180910390f35b34801561014557600080fd5b50638b78c6d8195461011c565b34801561015e57600080fd5b5061016761032b565b604051908152602001610130565b34801561018157600080fd5b50610167610190366004610c72565b61045c565b3480156101a157600080fd5b5060015461011c906001600160a01b031681565b3480156101c157600080fd5b506100ea6101d0366004610cfa565b610593565b3480156101e157600080fd5b506101f56101f0366004610c72565b6107b1565b6040516101309493929190610ddd565b34801561021157600080fd5b50610225610220366004610c72565b610879565b6040516101309190610e0c565b6100ea610240366004610e1f565b610b13565b6100ea610253366004610e1f565b610b53565b34801561026457600080fd5b50610167610273366004610e1f565b63389a75e1600c908152600091909152602090205490565b60006202a30067ffffffffffffffff164201905063389a75e1600c5233600052806020600c2055337fdbf36a107da19e49527a7176a1babf963b4b0ff8cde35ee35d6cd8f1f9ac7e1d600080a250565b63389a75e1600c523360005260006020600c2055337ffa7b8eab7da67f412cc9575ed43464468f9bfbae89d1675917346ca6d8fe3c92600080a2565b61031f610b7a565b6103296000610b95565b565b60025460009080820361034b5761034560016101f2610e5e565b91505090565b6000600261035a600184610e5e565b8154811061036a5761036a610e71565b90600052602060002090600402016040518060800160405290816000820154815260200160018201548152602001600282015481526020016003820180546103b190610e87565b80601f01602080910402602001604051908101604052809291908181526020018280546103dd90610e87565b801561042a5780601f106103ff5761010080835404028352916020019161042a565b820191906000526020600020905b81548152906001019060200180831161040d57829003601f168201915b505050505081525050905060018160400151826020015161044b9190610ec1565b6104559190610e5e565b9250505090565b600254600090815b8181101561058c5760006002828154811061048157610481610e71565b90600052602060002090600402016040518060800160405290816000820154815260200160018201548152602001600282015481526020016003820180546104c890610e87565b80601f01602080910402602001604051908101604052809291908181526020018280546104f490610e87565b80156105415780601f1061051657610100808354040283529160200191610541565b820191906000526020600020905b81548152906001019060200180831161052457829003601f168201915b50505050508152505090508060200151851015801561057257508060400151816020015161056f9190610ec1565b85105b156105835760200151949350505050565b50600101610464565b5050919050565b61059b610b7a565b600060405180608001604052808581526020016105b661032b565b6105c1906001610ec1565b81526020808201869052604091820185905260028054600181018255600091909152835160049091027f405787fa12a823e0f2b7631cc41b3ba8828b3321ca811111fa75cd3aa3bb5ace8101918255918401517f405787fa12a823e0f2b7631cc41b3ba8828b3321ca811111fa75cd3aa3bb5acf830155918301517f405787fa12a823e0f2b7631cc41b3ba8828b3321ca811111fa75cd3aa3bb5ad0820155606083015192935083927f405787fa12a823e0f2b7631cc41b3ba8828b3321ca811111fa75cd3aa3bb5ad1909101906106999082610f25565b50506001546001600160a01b03161590506107ab5780604001516001036107265760015460208201516040516318c85cf560e11b81526001600160a01b0390921691633190b9ea916106f19160040190815260200190565b600060405180830381600087803b15801561070b57600080fd5b505af192505050801561071c575060015b156107ab576107ab565b60018054602083015160408401516001600160a01b039092169263a4830114926107509083610ec1565b61075a9190610e5e565b6040516001600160e01b031960e085901b16815260048101929092526024820152604401600060405180830381600087803b15801561079857600080fd5b505af19250505080156107a9575060015b505b50505050565b600281815481106107c157600080fd5b90600052602060002090600402016000915090508060000154908060010154908060020154908060030180546107f690610e87565b80601f016020809104026020016040519081016040528092919081815260200182805461082290610e87565b801561086f5780601f106108445761010080835404028352916020019161086f565b820191906000526020600020905b81548152906001019060200180831161085257829003601f168201915b5050505050905084565b60606101f28210156108fc5760005460405163c87b56dd60e01b8152600481018490526001600160a01b039091169063c87b56dd90602401600060405180830381865afa1580156108ce573d6000803e3d6000fd5b505050506040513d6000823e601f3d908101601f191682016040526108f69190810190610fe5565b92915050565b60025460005b81811015610a9a5760006002828154811061091f5761091f610e71565b906000526020600020906004020160405180608001604052908160008201548152602001600182015481526020016002820154815260200160038201805461096690610e87565b80601f016020809104026020016040519081016040528092919081815260200182805461099290610e87565b80156109df5780601f106109b4576101008083540402835291602001916109df565b820191906000526020600020905b8154815290600101906020018083116109c257829003601f168201915b505050919092525050506020810151909150808610801590610a0e57506040820151610a0b9082610ec1565b86105b15610a90576000610a1f8288610e5e565b835160408051602081019390935282015260600160408051601f1981840301815282825280516020918201208383019092526005835264173539b7b760d91b908301529150610a8590610a7f610a7484610bd3565b606087015190610c17565b90610c17565b979650505050505050565b5050600101610902565b5060005460405163c87b56dd60e01b8152600481018590526001600160a01b039091169063c87b56dd90602401600060405180830381865afa158015610ae4573d6000803e3d6000fd5b505050506040513d6000823e601f3d908101601f19168201604052610b0c9190810190610fe5565b9392505050565b610b1b610b7a565b63389a75e1600c52806000526020600c208054421115610b4357636f5e88186000526004601cfd5b60009055610b5081610b95565b50565b610b5b610b7a565b8060601b610b7157637448fbae6000526004601cfd5b610b5081610b95565b638b78c6d819543314610329576382b429006000526004601cfd5b638b78c6d81980546001600160a01b039092169182907f8be0079c531659141344cd1fd0a4f28419497f9722a3daafe3b4186f6b6457e0600080a355565b60606080604051019050602081016040526000815280600019835b928101926030600a8206018453600a900480610bee575050819003601f19909101908152919050565b6040518251601f19906020810182165b8581015184820152820180610c27575083518184018360208301165b8681015182820152840180610c435750506000910183810160208101929092528352603f011660405292915050565b600060208284031215610c8457600080fd5b5035919050565b634e487b7160e01b600052604160045260246000fd5b604051601f8201601f1916810167ffffffffffffffff81118282101715610cca57610cca610c8b565b604052919050565b600067ffffffffffffffff821115610cec57610cec610c8b565b50601f01601f191660200190565b600080600060608486031215610d0f57600080fd5b8335925060208401359150604084013567ffffffffffffffff811115610d3457600080fd5b8401601f81018613610d4557600080fd5b8035610d58610d5382610cd2565b610ca1565b818152876020838501011115610d6d57600080fd5b816020840160208301376000602083830101528093505050509250925092565b60005b83811015610da8578181015183820152602001610d90565b50506000910152565b60008151808452610dc9816020860160208601610d8d565b601f01601f19169290920160200192915050565b848152836020820152826040820152608060608201526000610e026080830184610db1565b9695505050505050565b602081526000610b0c6020830184610db1565b600060208284031215610e3157600080fd5b81356001600160a01b0381168114610b0c57600080fd5b634e487b7160e01b600052601160045260246000fd5b818103818111156108f6576108f6610e48565b634e487b7160e01b600052603260045260246000fd5b600181811c90821680610e9b57607f821691505b602082108103610ebb57634e487b7160e01b600052602260045260246000fd5b50919050565b808201808211156108f6576108f6610e48565b601f821115610f20576000816000526020600020601f850160051c81016020861015610efd5750805b601f850160051c820191505b81811015610f1c57828155600101610f09565b5050505b505050565b815167ffffffffffffffff811115610f3f57610f3f610c8b565b610f5381610f4d8454610e87565b84610ed4565b602080601f831160018114610f885760008415610f705750858301515b600019600386901b1c1916600185901b178555610f1c565b600085815260208120601f198616915b82811015610fb757888601518255948401946001909101908401610f98565b5085821015610fd55787850151600019600388901b60f8161c191681555b5050505050600190811b01905550565b600060208284031215610ff757600080fd5b815167ffffffffffffffff81111561100e57600080fd5b8201601f8101841361101f57600080fd5b805161102d610d5382610cd2565b81815285602083850101111561104257600080fd5b611053826020830160208601610d8d565b9594505050505056fea2646970667358221220bd02dee3ea30242c04c3596c0e0bbbf097537700727c2577d42339ed3799dd5664736f6c63430008180033000000000000000000000000e5b20c26716ba7c42b398423c2f95e5f9d9ac093000000000000000000000000f307e242bfe1ec1ff01a4cef2fdaa81b10a52418",
        "nonce": "0x60",
        "chainId": "0x2105"
      },
      "additionalContracts": [],
      "isFixedGasLimit": false
    },
    {
      "hash": "0x9ea648574472776b13c4985b9ae25c21aee4d1f666b9a8355797bf73e708858c",
      "transactionType": "CALL",
      "contractName": "SimpleOffchainReveal",
      "contractAddress": "0xda323d35fd976486d9105f33a7a811ae36320c60",
      "function": "pushBatch(uint256,uint256,string)",
      "arguments": [
        "0",
        "10",
        "\"https://gateway.irys.xyz/y9tZi-bOlxkhe0pMYyHblPACeL8c_uo-ZtUz05UxPzM/\""
      ],
      "transaction": {
        "from": "0xd52e2a6bbceba9673440e4d7843db6713e9b6fd9",
        "to": "0xda323d35fd976486d9105f33a7a811ae36320c60",
        "gas": "0x44756",
        "value": "0x0",
        "input": "0xaaa97b3e0000000000000000000000000000000000000000000000000000000000000000000000000000000000000000000000000000000000000000000000000000000a0000000000000000000000000000000000000000000000000000000000000060000000000000000000000000000000000000000000000000000000000000004568747470733a2f2f676174657761792e697279732e78797a2f7939745a692d624f6c786b686530704d597948626c504143654c38635f756f2d5a74557a30355578507a4d2f000000000000000000000000000000000000000000000000000000",
        "nonce": "0x61",
        "chainId": "0x2105"
      },
      "additionalContracts": [],
      "isFixedGasLimit": false
    },
    {
      "hash": "0xa99cdef7fe06811dfbbac45fffaaa76c6a0f762a50ee052c5323e7c3df5994d0",
      "transactionType": "CALL",
      "contractName": null,
      "contractAddress": "0xf307e242bfe1ec1ff01a4cef2fdaa81b10a52418",
      "function": "setRenderer(address)",
      "arguments": [
        "0xda323d35fD976486d9105f33A7A811aE36320c60"
      ],
      "transaction": {
        "from": "0xd52e2a6bbceba9673440e4d7843db6713e9b6fd9",
        "to": "0xf307e242bfe1ec1ff01a4cef2fdaa81b10a52418",
        "gas": "0x1287d",
        "value": "0x0",
        "input": "0x56d3163d000000000000000000000000da323d35fd976486d9105f33a7a811ae36320c60",
        "nonce": "0x62",
        "chainId": "0x2105"
      },
      "additionalContracts": [],
      "isFixedGasLimit": false
    }
  ],
  "receipts": [
    {
      "status": "0x1",
      "cumulativeGasUsed": "0xfe57e",
      "logs": [
        {
          "address": "0xda323d35fd976486d9105f33a7a811ae36320c60",
          "topics": [
            "0x8be0079c531659141344cd1fd0a4f28419497f9722a3daafe3b4186f6b6457e0",
            "0x0000000000000000000000000000000000000000000000000000000000000000",
            "0x000000000000000000000000d52e2a6bbceba9673440e4d7843db6713e9b6fd9"
          ],
          "data": "0x",
          "blockHash": "0xcb69b5483eb135c896cd33cabcfac429b2b809c4a62d312c7b9ca3dcbb7721d4",
          "blockNumber": "0x12dadfa",
          "blockTimestamp": "0x66e5b8d7",
          "transactionHash": "0xa268799d280e467005f6056b39b4ff7fd312ec94bce6d8b1b5589d02ac7b244d",
          "transactionIndex": "0x0",
          "logIndex": "0x0",
          "removed": false
        }
      ],
      "logsBloom": "0x00000000000000000000000000000000000000000000080000800000000800000000000000000000000000000000000000000000000000000010000000000000000000000000000000000000000000000011000000000000000000000000000000000000020000000000000000000800000000000000000000002000000000400800000000000000000000000000000000000000000000000000000000000000000000000000000000000000000000000000000000000000000000000000000000000000000000000000000000000000000000000000000000000000000020000000000000000000000000000000000000000000000000000000000000000000",
      "type": "0x2",
      "transactionHash": "0xa268799d280e467005f6056b39b4ff7fd312ec94bce6d8b1b5589d02ac7b244d",
      "transactionIndex": "0x0",
      "blockHash": "0xcb69b5483eb135c896cd33cabcfac429b2b809c4a62d312c7b9ca3dcbb7721d4",
      "blockNumber": "0x12dadfa",
      "gasUsed": "0xfe57e",
      "effectiveGasPrice": "0x14540",
      "blobGasPrice": "0x1",
      "from": "0xd52e2a6bbceba9673440e4d7843db6713e9b6fd9",
      "to": null,
      "contractAddress": "0xda323d35fd976486d9105f33a7a811ae36320c60",
      "root": "0x0000000000000000000000000000000000000000000000000000000000000000"
    },
    {
      "status": "0x1",
      "cumulativeGasUsed": "0x12d271",
      "logs": [],
      "logsBloom": "0x00000000000000000000000000000000000000000000000000000000000000000000000000000000000000000000000000000000000000000000000000000000000000000000000000000000000000000000000000000000000000000000000000000000000000000000000000000000000000000000000000000000000000000000000000000000000000000000000000000000000000000000000000000000000000000000000000000000000000000000000000000000000000000000000000000000000000000000000000000000000000000000000000000000000000000000000000000000000000000000000000000000000000000000000000000000",
      "type": "0x2",
      "transactionHash": "0x9ea648574472776b13c4985b9ae25c21aee4d1f666b9a8355797bf73e708858c",
      "transactionIndex": "0x1",
      "blockHash": "0xcb69b5483eb135c896cd33cabcfac429b2b809c4a62d312c7b9ca3dcbb7721d4",
      "blockNumber": "0x12dadfa",
      "gasUsed": "0x2ecf3",
      "effectiveGasPrice": "0x14540",
      "blobGasPrice": "0x1",
      "from": "0xd52e2a6bbceba9673440e4d7843db6713e9b6fd9",
      "to": "0xda323d35fd976486d9105f33a7a811ae36320c60",
      "contractAddress": null,
      "root": "0x0000000000000000000000000000000000000000000000000000000000000000"
    },
    {
      "status": "0x1",
      "cumulativeGasUsed": "0x13a919",
      "logs": [
        {
          "address": "0xf307e242bfe1ec1ff01a4cef2fdaa81b10a52418",
          "topics": [
            "0x715ad5ce61fc9595c7b415289d59cf203f23a94fa06f04af7e489a0a76e1fe26",
            "0x000000000000000000000000e5b20c26716ba7c42b398423c2f95e5f9d9ac093",
            "0x0000000000000000000000000000000000000000000000000000000000000000"
          ],
          "data": "0x",
          "blockHash": "0xcb69b5483eb135c896cd33cabcfac429b2b809c4a62d312c7b9ca3dcbb7721d4",
          "blockNumber": "0x12dadfa",
          "blockTimestamp": "0x66e5b8d7",
          "transactionHash": "0xa99cdef7fe06811dfbbac45fffaaa76c6a0f762a50ee052c5323e7c3df5994d0",
          "transactionIndex": "0x2",
          "logIndex": "0x1",
          "removed": false
        },
        {
          "address": "0xf307e242bfe1ec1ff01a4cef2fdaa81b10a52418",
          "topics": [
            "0x715ad5ce61fc9595c7b415289d59cf203f23a94fa06f04af7e489a0a76e1fe26",
            "0x000000000000000000000000da323d35fd976486d9105f33a7a811ae36320c60",
            "0x0000000000000000000000000000000000000000000000000000000000000001"
          ],
          "data": "0x",
          "blockHash": "0xcb69b5483eb135c896cd33cabcfac429b2b809c4a62d312c7b9ca3dcbb7721d4",
          "blockNumber": "0x12dadfa",
          "blockTimestamp": "0x66e5b8d7",
          "transactionHash": "0xa99cdef7fe06811dfbbac45fffaaa76c6a0f762a50ee052c5323e7c3df5994d0",
          "transactionIndex": "0x2",
          "logIndex": "0x2",
          "removed": false
        }
      ],
      "logsBloom": "0x00000000000000000000000000000000000000000000000000000000000000000000000000000000000000000000000000000000000000000000000000040000000000000000000000000000000000000020002000040000000000000000000000000000020000000000000000000800040000000000020000000000000000000000000000000008000000000000000000000000000000000000000000000000000000002000000000000000000000000000000000010000000000000200000000002000400004000000000000000000000000000000010000000000000060000000000000000000000000000000000000000000000000000000000000000000",
      "type": "0x2",
      "transactionHash": "0xa99cdef7fe06811dfbbac45fffaaa76c6a0f762a50ee052c5323e7c3df5994d0",
      "transactionIndex": "0x2",
      "blockHash": "0xcb69b5483eb135c896cd33cabcfac429b2b809c4a62d312c7b9ca3dcbb7721d4",
      "blockNumber": "0x12dadfa",
      "gasUsed": "0xd6a8",
      "effectiveGasPrice": "0x14540",
      "blobGasPrice": "0x1",
      "from": "0xd52e2a6bbceba9673440e4d7843db6713e9b6fd9",
      "to": "0xf307e242bfe1ec1ff01a4cef2fdaa81b10a52418",
      "contractAddress": null,
      "root": "0x0000000000000000000000000000000000000000000000000000000000000000"
    }
  ],
  "libraries": [],
  "pending": [],
  "returns": {},
  "timestamp": 1726331102,
  "chain": 8453,
  "commit": "62be437"
}